:020000040800F2
:1000000000500020FD1C0008A9060008AD060008ED
:10001000B1060008B5060008B90600080000000097
:10002000000000000000000000000000BD06000805
:10003000C106000800000000C5060008C906000847
:10004000451D0008451D0008451D0008451D000808
:10005000451D0008451D0008451D0008451D0008F8
:10006000451D0008451D0008451D0008451D0008E8
:10007000451D0008451D0008451D0008D106000863
:10008000451D0008451D0008451D0008451D0008C8
:10009000451D0008451D0008451D0008451D0008B8
:1000A000451D0008451D0008451D0008451D0008A8
:1000B000451D0008451D0008451D0008451D000898
:1000C000451D0008451D0008451D0008451D000888
:1000D000451D0008E1060008451D0008451D0008F3
:1000E000451D0008451D0008451D000800000000D2
:1000F0000000000000000000000000000000000000
:0C01000000000000000000005FF808F1A3
:10010C00044B05481B1A062B02D9044B03B11847A4
:10011C00704700BF170000201400002000000000F2
:10012C0005490648091A891001EBD171491002D012
:10013C00034B03B118477047140000201400002033
:10014C000000000010B5064C237843B9FFF7D8FF28
:10015C00044B13B10448AFF300800123237010BD8E
:10016C001400002000000000941D000808B5084B86
:10017C001BB108480849AFF300800848036813B95D
:10018C00BDE80840CCE7064B002BF9D09847F7E7C1
:10019C0000000000941D000818000020140000202E
:1001AC000000000030B591B00024089409940B9421
:1001BC000C940194029403940494059401220692E5
:1001CC004FF4803307930A9202250D950E934FF44A
:1001DC00E0130F9306A800F0DDFC0F2301930295AA
:1001EC0003944FF480630493059401A8294600F00E
:1001FC0023FF11B030BD00BF38B500F07DFCFFF718
:10020C00D1FF00F0C9F800F037F900F08BF900F0DD
:10021C00CFF92B4C2046082100F008FC20460C217D
:10022C0000F004FC274D28461021002201F0D8F8DC
:10023C0028462021002201F0D3F823480221012274
:10024C0001F0CEF821482249224B1A8801F08EFB8E
:10025C0021484FF40051002201F0C2F841F28830DD
:10026C0000F06EFC23680F25DD634FF4FA6000F09C
:10027C0067FC23681D644FF4FA6000F061FC0024F5
:10028C000134A4B20E4B1B68144A1278DA63144A78
:10029C0012781A64322C06D10F484FF40051002208
:1002AC0001F09EF808E0642C06D10B484FF4005185
:1002BC00012201F095F800240A2000F041FCDFE750
:1002CC003C000020000C014000080140C000002050
:1002DC00300000200200002000100140000000202F
:1002EC000400002025490A78303A487802EB820253
:1002FC0053000344303BDBB25B00214A82FB0323F7
:10030C009B1005331F4A13708A78303AC97802EB78
:10031C00820253000B442F3BDBB2052B11D91A4A36
:10032C00B2F900200F2A03DD0F22174B1A8019E0B7
:10033C00164AA2FB03231B09C3F10F03124A1380B5
:10034C0010E00E4B1A79303A597902EB82025300C5
:10035C000B442F3BDBB20D4AA2FB03231B090F33CB
:10036C00094A1380054B9B79312B02D10F22064B86
:10037C001A80054B1A88064B1A7070473000002003
:10038C0067666666040000203A000020CDCCCCCC19
:10039C0000000020704700BF2DE9F04389B0002415
:1003AC0004940594069407942F4B9A6942F010021A
:1003BC009A619A6902F010020092009A9A6942F0CE
:1003CC0020029A619A6902F020020192019A9A69BC
:1003DC0042F004029A619A6902F004020292029AB3
:1003EC009A6942F008029A619B6903F0080303932F
:1003FC00039BDFF87C9048464FF40051012200F03B
:10040C00EFFFDFF8708040460221012200F0E8FF88
:10041C00164E30461021012200F0E2FF304620211A
:10042C00224600F0DDFF4FF400530493012705979B
:10043C00069402250795484604A900F0DBFE0495B6
:10044C00059706940795404604A900F0D3FE302387
:10045C000493059706940795304604A900F0CAFE4C
:10046C0009B0BDE8F08300BF00100240000C014051
:10047C00001001400008014000B583B00A4B5A69D6
:10048C0042F001025A615B6903F001030193019B85
:10049C000F2000210A4601F02FF90F2001F05EF920
:1004AC0003B05DF804FB00BF001002400268084B6B
:1004BC009A420CD182B003F50233DA6942F004029D
:1004CC00DA61DB6903F004030193019B02B070470E
:1004DC000008004000B587B00023029303930493F7
:1004EC00059302680D4B9A4214D103F502339A69B5
:1004FC0042F008029A619B6903F008030193019B87
:10050C004FF440730293022303930593044802A90A
:10051C0000F070FE07B05DF804FB00BF000800405F
:10052C00000C014000B58BB0002308930993019394
:10053C000293039304930593069307931A481B4A5B
:10054C00026041F61F4242608360C722C2600361B1
:10055C00836100F0A1F908B1FFF71CFF0023089399
:10056C000993114808A900F07DFA08B1FFF712FFB2
:10057C006023019300230293039305930A4801A976
:10058C00082200F0D5F908B1FFF704FF064801A9CD
:10059C000C2200F0CDF908B1FFF7FCFE0248FFF782
:1005AC0099FF0BB05DF804FB3C00002000080040F4
:1005BC0008B50A480A4B03604FF4E133436000234B
:1005CC008360C36003610C2242618361C36101F0EB
:1005DC009BF908B1FFF7DEFE08BD00BFC00000208C
:1005EC000038014070B586B0002302930393049346
:1005FC0005930268254B9A4246D1044603F55843AD
:10060C009A6942F480429A619A6902F4804200929B
:10061C00009A9A6942F004029A619B6903F0040300
:10062C000193019B4FF40073029302230393032362
:10063C000593174E304602A900F0DCFD4FF48063A1
:10064C000293002503950495304602A900F0D2FDD3
:10065C001048114B0360456085608023C3600561C1
:10066C00456120238361C56100F0D6FE08B1FFF718
:10067C0091FE084B63635C62252000210A4601F061
:10068C003BF8252001F06AF806B070BD0038014037
:10069C00000801407C00002058000240704700BF59
:1006AC00FEE700BFFEE700BFFEE700BFFEE700BFAE
:1006BC00704700BF704700BF704700BF08B500F01F
:1006CC002DFA08BD08B5024800F064FF08BD00BF54
:1006DC007C00002008B5024801F04EFA08BD00BFAE
:1006EC00C000002082B00E4B9A6942F001029A6160
:1006FC009A6902F001020092009ADA6942F0805283
:10070C00DA61DB6903F080530193019B054A53685E
:10071C0023F0E06343F00073536002B0704700BFF6
:10072C00001002400000014030B4036A23F00103C2
:10073C000362036A4468826922F073020D682A43DB
:10074C0023F002038D682B430C4DA84205D123F0F6
:10075C000803CD682B4323F00403084DA84205D1B0
:10076C0024F440744D692C438D692C4344608261A0
:10077C004A684263036230BC704700BF002C0140E2
:10078C0030B4036A23F480730362036A4468C26959
:10079C0022F073020D682A4323F400738D6843EA38
:1007AC0005230E4DA84206D123F40063CD6843EA1D
:1007BC00052323F48063094DA84207D124F4405447
:1007CC004D6944EA05148D6944EA05144460C2611C
:1007DC004A68C263036230BC704700BF002C014002
:1007EC0030B4036A23F480530362036A4468C26919
:1007FC0022F4E6420D6842EA052223F400538D6888
:10080C0043EA0533074DA84204D124F480444D69D2
:10081C0044EA85144460C2614A680264036230BCD5
:10082C00704700BF002C014003681A4A90420AD05E
:10083C00B0F1804F07D0A2F59432904203D002F56C
:10084C008062904203D123F070034A681343114A2B
:10085C0090420AD0B0F1804F07D0A2F5943290426A
:10086C0003D002F58062904203D123F44073CA682E
:10087C00134323F080034A69134303608B68C362FC
:10088C000B688362034B984201D10B69036301230C
:10089C0043617047002C0140C0B110B5044690F87C
:1008AC003D3013F0FF0F04D1002380F83C30FFF7EC
:1008BC00FDFD022384F83D30214651F8040BFFF76F
:1008CC00B3FF012384F83D30002010BD0120704798
:1008DC0030B4036A23F010030362036A446882692C
:1008EC0022F4E6420D6842EA052223F020038D68CB
:1008FC0043EA05130D4DA84206D123F08003CD68C1
:10090C0043EA051323F04003084DA84207D124F411
:10091C0040644D6944EA85048D6944EA8504446069
:10092C0082614A688263036230BC7047002C0140CC
:10093C0038B590F83C30012B66D00D4604460123A7
:10094C0080F83C30022380F83D300C2A55D8DFE883
:10095C0002F0075454541A5454542E545454410015
:10096C000068FFF7E1FE2268936943F00803936186
:10097C002268936923F004039361226891692B69BF
:10098C000B43936139E00068FFF7A2FF226893697B
:10099C0043F4006393612268936923F48063936149
:1009AC0022689369296943EA0123936125E0006871
:1009BC00FFF7E6FE2268D36943F00803D36122688F
:1009CC00D36923F00403D3612268D1692B690B43EB
:1009DC00D36112E00068FFF703FF2268D36943F488
:1009EC000063D3612268D36923F48063D3612268E6
:1009FC00D369296943EA0123D361012384F83D308B
:100A0C00002084F83C0038BD022038BD10B401F041
:100A1C001F0101238B40046A24EA03030362036A67
:100A2C008A401A4302625DF8044B704710B50446C5
:100A3C0000680122FFF7EAFF2368094A934203D1B9
:100A4C005A6C42F400425A642268936803F007031C
:100A5C00062B03D0136843F001031360002010BD74
:100A6C00002C014090F83C30012B1BD070B40125B8
:100A7C0080F83C50022380F83D3004686268A3681B
:100A8C0022F070020E68324323F0800349680B4356
:100A9C0062600268936080F83D50002380F83C301F
:100AAC00184601E00220704770BC704710B5044630
:100ABC000E4B18784FF47A73B3FBF0F30C4A1068B2
:100ACC00B0FBF3F000F058FE58B90F2C0BD84FF0D8
:100ADC00FF302146002200F00FFE064B1C60002068
:100AEC0010BD012010BD012010BD00BF0C00002066
:100AFC00100000200800002008B5074A136843F0D6
:100B0C0010031360032000F0E5FD0020FFF7CEFF7B
:100B1C00FFF7E8FD002008BD00200240034A1368DF
:100B2C00034909780B441360704700BF0001002093
:100B3C000C000020014B1868704700BF000100201A
:100B4C0038B50446FFF7F6FF0546B4F1FF3F02D077
:100B5C00044B1B781C44FFF7EDFF401B8442FAD872
:100B6C0038BD00BF0C00002082B0084B1B68084A3F
:100B7C00A2FB03235B0A00FB03F0019000BF019B67
:100B8C005A1E0192002BF9D102B0704710000020C0
:100B9C00D34D6210002800F0EC8170B582B0044691
:100BAC00036813F0010F6BD0A84B5B6803F00C03C8
:100BBC00042B0AD0A54B5B6803F00C03082B0DD15A
:100BCC00A24B5B6813F4803F08D0A04B1B6813F456
:100BDC00003F55D06368002B52D1CCE16368B3F56C
:100BEC00803F05D1994A136843F48033136026E0A3
:100BFC0063B903F1804303F504331A6822F480329D
:100C0C001A601A6822F480221A6018E0B3F5A02F3B
:100C1C000CD103F18043A3F53C331A6842F48022D3
:100C2C001A601A6842F480321A6008E0874B1A681E
:100C3C0022F480321A601A6822F480221A606368E7
:100C4C007BB1FFF777FF054605E0FFF773FF401B0D
:100C5C00642800F292817D4B1B6813F4003FF4D0A2
:100C6C000EE0FFF767FF054605E0FFF763FF401B4B
:100C7C00642800F28481754B1B6813F4003FF4D197
:100C8C00236813F0020F50D0704B5B6813F00C0FFD
:100C9C000AD06E4B5B6803F00C03082B16D16B4B20
:100CAC005B6813F4803F11D1684B1B6813F0020F83
:100CBC0003D02369012B40F06481644A136823F04C
:100CCC00F803616943EAC10313602EE02369D3B1D1
:100CDC0001225F4B1A60FFF72DFF054605E0FFF779
:100CEC0029FF401B022800F24E81584B1B6813F061
:100CFC00020FF4D0554A136823F0F803616943EAF4
:100D0C00C103136011E00022514B1A60FFF712FF70
:100D1C00054605E0FFF70EFF401B022800F2358167
:100D2C004A4B1B6813F0020FF4D1236813F0080F21
:100D3C0029D0A369ABB10122464B1A60FFF7FAFE2A
:100D4C00054605E0FFF7F6FE401B022800F21F8166
:100D5C003E4B5B6A13F0020FF4D00120FFF704FF47
:100D6C0011E000223B4B1A60FFF7E4FE054605E05C
:100D7C00FFF7E0FE401B022800F20B81334B5B6A4D
:100D8C0013F0020FF4D1236813F0040F00F08B80E2
:100D9C002E4BDB6913F0805F0BD12C4BDA6942F0E0
:100DAC008052DA61DB6903F080530193019B0125CA
:100DBC0000E00025284B1B6813F4807F13D1264AD2
:100DCC00136843F480731360FFF7B4FE064605E026
:100DDC00FFF7B0FE801B642800F2DD801E4B1B6801
:100DEC0013F4807FF4D0E368012B05D1174A136A02
:100DFC0043F00103136222E063B903F1804303F56E
:100E0C0004331A6A22F001021A621A6A22F00402EE
:100E1C001A6214E0052B09D10C4B1A6A42F0040239
:100E2C001A621A6A42F001021A6208E0074B1A6A47
:100E3C0022F001021A621A6A22F004021A62E368B2
:100E4C00D3B1FFF777FE064610E000BF001002405A
:100E5C00000042428004424200700040FFF76AFEEC
:100E6C00801B41F28833984200F29780544B1B6AE6
:100E7C0013F0020FF2D010E0FFF75CFE064607E01D
:100E8C00FFF758FE801B41F28833984200F28780AE
:100E9C004B4B1B6A13F0020FF2D125B1484AD369B0
:100EAC0023F08053D361E369002B7AD0444A526813
:100EBC0002F00C02082A4CD0022B37D10022414BF5
:100ECC001A60FFF737FE054604E0FFF733FE401BC0
:100EDC00022868D83A4B1B6813F0007FF5D1236ABF
:100EEC00B3F5803F06D136494B6823F40032A36832
:100EFC0013434B603248436823F47411236A626ACB
:100F0C0013430B43436001222E4B1A60FFF712FE72
:100F1C00044604E0FFF70EFE001B022845D8284BC0
:100F2C001B6813F0007FF5D0002047E00022254B12
:100F3C001A60FFF7FFFD044604E0FFF7FBFD001B02
:100F4C00022834D81E4B1B6813F0007FF5D100200B
:100F5C0034E0012B2DD01A4B5B6803F48031226AEC
:100F6C00914228D103F47013626A934225D0012078
:100F7C0024E001207047012020E003201EE0032024
:100F8C001CE001201AE0032018E0032016E00320E7
:100F9C0014E0032012E0032010E003200EE00320F5
:100FAC000CE000200AE0032008E0032006E0032008
:100FBC0004E0012002E0012000E0002002B070BD3E
:100FCC00001002406000424230B486B0164D02ACB4
:100FDC0028686968AA68EB680FC42B8AADF80430DE
:100FEC00124B5B6803F00C02082A19D1C3F383423D
:100FFC0006A90A4412F8100C13F4803F0CD00B4BCA
:10100C005B68C3F340430B4413F8142C084B03FBED
:10101C0000F0B0FBF2F004E0064B03FB00F000E044
:10102C00034806B030BC7047AC1D000800100240ED
:10103C0000127A0000093D00002800F09D8070B578
:10104C000446544B1B6803F007038B420BD2514AE6
:10105C00136823F007030B431360136803F00703B3
:10106C008B4240F08B80236813F0020F17D013F0E3
:10107C00040F04D0484A536843F4E0635360236878
:10108C0013F0080F04D0444A536843F46053536080
:10109C004148436823F0F002A368134343600D46B4
:1010AC00236813F0010F2ED06268012A05D13A4B48
:1010BC001B6813F4003F0DD162E0022A05D1364BB8
:1010CC001B6813F0007F05D15CE0334B1B6813F0F9
:1010DC00020F59D030494B6823F0030313434B6084
:1010EC00FFF728FD064606E0FFF724FD801B41F2C2
:1010FC00883398424AD8284B5B6803F00C0362682B
:10110C00B3EB820FF0D1234B1B6803F00703AB4208
:10111C000AD9204A136823F007032B431360136882
:10112C0003F00703AB4233D1236813F0040F06D04E
:10113C0019494B6823F4E062E36813434B6023685E
:10114C0013F0080F07D0144A536823F46053216935
:10115C0043EAC1035360FFF737FF0F4B5B68C3F3E0
:10116C0003130E4AD35CD8400D4B18600D4B186816
:10117C00FFF79CFC002070BD01207047012070BD62
:10118C00012070BD012070BD012070BD032070BD19
:10119C00012070BD0020024000100240C01D00085C
:1011AC001000002008000020014B1868704700BF99
:1011BC001000002008B5FFF7F7FF044B5B68C3F382
:1011CC000223034AD35CD84008BD00BF0010024084
:1011DC00D01D000808B5FFF7E7FF044B5B68C3F3AD
:1011EC00C223034AD35CD84008BD00BF00100240A4
:1011FC00D01D0008F0B583B04FF0000E7446DBE054
:10120C000122A2401340934240F0D5804D68122D2C
:10121C0030D00BD8022D29D003D87DB3012D1ED090
:10122C003DE0032D36D0112D1CD038E0664EB54272
:10123C0024D008D8A6F58016B5421FD006F5803606
:10124C00B5422CD11AE0614EB54217D006F5803666
:10125C00B54213D0A6F58016B54220D10EE0D1F8D8
:10126C000CE01CE0CA6802F1040E18E0CA6802F136
:10127C00080E14E0CA6802F10C0E10E08D6865B11E
:10128C00012D03D102614FF0080E08E042614FF0CE
:10129C00080E04E04FF0000E01E04FF0040EFF2B9F
:1012AC0001D8844601E000F1040CFF2B01D8A70003
:1012BC0002E0A4F10807BF00DCF800600F22BA407E
:1012CC0026EA02050EFA07F22A43CCF800204A68F7
:1012DC0012F0805F6FD03E4A956945F0010595612B
:1012EC00926902F001020192019AA708BD1C394AC9
:1012FC0052F8256004F0030C4FEA8C0C0F2202FA12
:10130C000CF226EA0205344A904213D002F58062B0
:10131C0090420DD002F58062904207D002F58062B7
:10132C00904201D1032206E0042204E0022202E0F2
:10133C00012200E0002202FA0CF22A430237254D6A
:10134C0045F827204A6812F4803F05D005F58065E2
:10135C002A681A432A6004E0204D2A6822EA030214
:10136C002A604A6812F4003F04D01C4D6A681A4384
:10137C006A6004E0194D6A6822EA03026A604A68EE
:10138C0012F4801F04D0154DAA681A43AA6004E019
:10139C00124DAA6822EA0302AA604A6812F4001FDE
:1013AC0004D00E4DEA681343EB6004E00B4DEA6881
:1013BC0022EA0303EB6001340B6833FA04F27FF486
:1013CC001FAF03B0F0BD00BF0000211000003110B2
:1013DC0000100240000001400008014000040140E0
:1013EC000AB10161704709040161704770B4C56BA3
:1013FC00066C0124B4406C60046863604368102B75
:10140C0004D103689A600368D96003E003689960AB
:10141C000368DA6070BC704758B310B403460168B7
:10142C00164A0A441648A0FB0202120992001A64DA
:10143C00144ADA63022283F821200A6822F47F52CC
:10144C0022F030025C6898680443D8680443186939
:10145C0004435869044398690443D8692043024300
:10146C000A6000209863012283F8212083F8200071
:10147C0001E0012070475DF8044B7047F8FFFDBF99
:10148C00CDCCCCCC0000024038B590F82040012CDB
:10149C0032D0012480F8204090F82140012C26D134
:1014AC000446022084F821000020A06325682868E7
:1014BC0020F0010028602046FFF798FFE36A2BB16B
:1014CC002268136843F00E03136009E02268136866
:1014DC0023F0040313602268136843F00A031360BB
:1014EC002268136843F001031360002038BD002309
:1014FC0080F82030022038BD022038BD08B590F8A5
:10150C002130022B03D004238363012008BD026821
:10151C00136823F00E0313600268136823F00103B1
:10152C0013600368194A93421FD0143293421AD0A5
:10153C001432934214D0143293420ED0143293428C
:10154C0008D01432934202D14FF480120EE04FF0C7
:10155C0080720BE04FF4803208E04FF4805205E0CB
:10156C004FF4807202E0102200E00122084B5A6016
:10157C00012380F82130002380F82030436B13B115
:10158C009847002008BD002008BD00BF080002409D
:10159C000000024038B5C36B1A6804682568016CFA
:1015AC0004238B40134236D015F0040F33D023683C
:1015BC0013F0200F03D1236823F004032360036886
:1015CC00424A93421FD0143293421AD0143293429F
:1015DC0014D0143293420ED01432934208D01432E9
:1015EC00934202D14FF480020EE04FF080620BE088
:1015FC004FF4802208E04FF4804205E04FF4806203
:10160C0002E0402200E00422314B5A60C36A002BF6
:10161C005BD0984738BD02238B4013423BD015F06A
:10162C00020F38D0236813F0200F06D1236823F063
:10163C000A032360012380F821300368234A934274
:10164C001FD0143293421AD01432934214D0143255
:10165C0093420ED01432934208D01432934202D1EA
:10166C004FF400120EE04FF000720BE04FF400321A
:10167C0008E04FF4005205E04FF4007202E0202223
:10168C0000E00222124B5A60002380F82030836A5B
:10169C00DBB1984738BD08238B40134215D015F0A9
:1016AC00080F12D0236823F00E032360C26B016C69
:1016BC00012303FA01F15160836380F82130002388
:1016CC0080F82030036B03B1984738BD0800024006
:1016DC000000024000F00700064AD36823F4E063E0
:1016EC001B041B0C43EA002040F0BF6040F40030A8
:1016FC00D060704700ED00E030B4164BDC68C4F3EA
:10170C000224C4F10705042D28BF0425231D062B34
:10171C0001D9033C00E00024012303FA05F5013D47
:10172C002940A140A340013B1A400A43002808DB92
:10173C001201D2B200F1604000F5614080F8002344
:10174C0005E000F00F001201D2B2034B1A5430BC6A
:10175C00704700BF00ED00E014ED00E0002807DB4F
:10176C00410900F01F0001238340024A42F8213056
:10177C00704700BF00E100E00138B0F1807F0AD271
:10178C00064B5860F021064A82F82310002098601E
:10179C0007221A6070470120704700BF10E000E07C
:1017AC0000ED00E00268D36823F0C003D36020236F
:1017BC0080F83930704700BF0268D36823F4907307
:1017CC00D3600268536923F001035361202380F82E
:1017DC003A30704790F83930DBB2212B2AD183682C
:1017EC00B3F5805F0FD1036A02681B88C3F308034B
:1017FC00536003691BB9036A0233036209E0036A8D
:10180C000133036205E00268036A591C01621B780C
:10181C005360C38C013B9BB2C3846BB90268D36821
:10182C0023F08003D3600268D36843F04003D36095
:10183C0000207047022070470020704710B5044606
:10184C0001680B6923F44052C36813430B6182682F
:10185C0003691A43436913430168CA6822F4B052FE
:10186C0022F00C021343CB6001684B6923F44072E5
:10187C00836913434B610268214B9A421FD1FFF7D6
:10188C00A9FC216800EB800000EB800063689B00E2
:10189C00B0FBF3F01B4BA3FB00246409642202FB96
:1018AC00140212013232A3FB02235B0903F0F00293
:1018BC0002EB041403F00F0323448B6010BDFFF7FD
:1018CC0079FC216800EB800000EB800063689B00D2
:1018DC00B0FBF3F00B4BA3FB00246409642202FB66
:1018EC00140212013232A3FB02235B0903F0F00253
:1018FC0002EB041403F00F0323448B6010BD00BFF4
:10190C00003801401F85EB5168B310B5044690F8C0
:10191C00393013F0FF0F04D1002380F83830FEF774
:10192C0061FE242384F839302268D36823F40053F1
:10193C00D3602046FFF782FF2268136923F490439B
:10194C0013612268536923F02A0353612268D36818
:10195C0043F40053D3600020E063202384F8393033
:10196C0084F83A3010BD0120704700BF70B582B0CA
:10197C000446134690F83A20D2B2202A3CD10E46A7
:10198C0000293BD0002B3BD090F83820012A39D0CD
:10199C00012280F83820A16283850025C5632222AC
:1019AC0080F83A20426B19499162426B1849D16216
:1019BC00426B18491163426B55630168406B0431EB
:1019CC003246FFF761FD019523681A6801925A6847
:1019DC000192019A84F83850DA6842F48072DA6025
:1019EC002268536943F0010353612268536943F041
:1019FC0040035361284606E0022004E0012002E087
:101A0C00012000E0022002B070BD00BF451A0008A2
:101A1C00251B0008351B0008704700BF08B501687E
:101A2C00CB6823F04003CB60202380F83930FFF7DC
:101A3C00F3FF002008BD00BF08B5436A02681268B6
:101A4C0012F0200F13D10022DA851968CA6822F42B
:101A5C008072CA6019684A6922F001024A611968E9
:101A6C004A6922F040024A61202283F83A20184643
:101A7C00FEF738FC08BD00BF08B590F83A30DBB271
:101A8C00222B43D18368B3F5805F13D1826A03693B
:101A9C0043B903685B68C3F308031380836A02339A
:101AAC00836218E003685B68DBB21380836A0133DE
:101ABC00836210E0036933B9836A5A1C826202683C
:101ACC0052681A7007E0826A531C836203685B6871
:101ADC0003F07F031370C38D013B9BB2C385BBB96D
:101AEC000268D36823F02003D3600268D36823F420
:101AFC008073D3600268536923F001035361202380
:101B0C0080F83A30FEF7EEFB002008BD022008BD3D
:101B1C00002008BD704700BF08B5406AFFF7FAFF08
:101B2C0008BD00BF704700BF10B5446A23685B69ED
:101B3C0003F0800294F83930DBB2212B05D122B1AD
:101B4C000023E3842046FFF72DFE23685B6903F036
:101B5C00400294F83A30DBB2222B05D122B100239B
:101B6C00E3852046FFF728FEE36B43F01003E363A5
:101B7C002046FFF7D7FF10BD10B504460268136866
:101B8C00D168526913F00F0009D113F0200F06D061
:101B9C0011F0200F03D02046FFF76EFF10BD002878
:101BAC0062D012F0010202D111F4907F5CD013F0DC
:101BBC00010F06D011F4807F03D0E06B40F00100E0
:101BCC00E06313F0040F04D01AB1E06B40F0020094
:101BDC00E06313F0020F04D01AB1E06B40F0040084
:101BEC00E06313F0080F04D01AB1E26B42F0080264
:101BFC00E263E26B002A4AD013F0200F05D011F0FB
:101C0C00200F02D02046FFF737FF23685B6903F0F3
:101C1C004003E26B12F0080F00D1FBB12046FFF736
:101C2C00CBFD23685A6912F0400F13D05A6922F089
:101C3C0040025A61636B4BB1154A5A63606BFFF7F4
:101C4C005DFC20B3606B436B984710BD2046FFF7DB
:101C5C0069FF10BD2046FFF765FF10BD2046FFF75A
:101C6C0061FF0023E36310BD13F0800F06D011F069
:101C7C00800F03D02046FFF7ADFD10BD13F0400FD1
:101C8C0005D011F0400F02D02046FFF7C7FE10BD63
:101C9C00A11C000808B5406A0023C385C384FFF764
:101CAC0041FF08BD0F4B1A6842F001021A605968D7
:101CBC000D4A0A405A601A6822F0847222F480326B
:101CCC001A601A6822F480221A605A6822F4FE0202
:101CDC005A604FF41F029A604FF00062034B9A60F7
:101CEC00704700BF001002400000FFF800ED00E05C
:101CFC00002103E00B4B5B58435004310A480B4B5B
:101D0C0042189A42F6D30A4A02E0002342F8043BF6
:101D1C00084B9A42F9D3FFF7C5FF00F00FF8FEF716
:101D2C006BFA7047E01D0008000000201400002032
:101D3C001400002004010020FEE700000E4B70B5DB
:101D4C001E460E4C0025E41AA410A54204D056F8E9
:101D5C00253098470135F8E700F016F8084B094C88
:101D6C001E46E41AA4100025A54204D056F82530CE
:101D7C0098470135F8E770BDD81D0008D81D00083C
:101D8C00D81D0008DC1D0008F8B500BFF8BC08BC65
:101D9C009E467047F8B500BFF8BC08BC9E4670471D
:101DAC0002030405060708090A0B0C0D0E0F101090
:101DBC00010200000000000000000000010203040A
:0C1DCC00060708090000000001020304E3
:041DD8007901000885
:041DDC0051010008A9
:101DE0000F0009000F0000001000000001000000BB
:041DF0000024F400D7
:0400000508001CFDD6
:00000001FF
